:020000040000FA
:0400000023EF03F0F7
:1002000000303030300031303030003031303000AC
:100210003131303000303031300031303130003069
:100220003131300030303031003130303100313157
:100230003031003130313100303131310000000EC9
:10024000956E0F0EC16E000E936E9468000E816E57
:100250009282000E4E6E050E4D6E46EC02F00C0EB4
:100260007CEC03F0000E4E6E050E4D6E46EC02F077
:10027000010E7CEC03F0000E4E6E050E4D6E46EC4A
:1002800002F0060E7CEC03F0000E4E6E050E4D6E75
:1002900046EC02F0800E7CEC03F0000E4E6E050E74
:1002A0004D6E46EC02F0000E476E000E466E59EFA2
:1002B00001F0000E596E5AEC03F0456EB3EC02F0FB
:1002C000586E000E4E6E640E4D6E46EC02F04750B6
:1002D000010D480EF324D96E000EF420DA6E58C0DA
:1002E000DFFF472A040E4718D8B479EF01F07BEFFF
:1002F00001F085EF01F04550D8B481EF01F083EFB4
:1003000001F0A3EF01F085EF01F008EC02F0596E67
:100310005950D8B48EEF01F090EF01F0A3EF01F047
:100320004650010D350EF324D96E000EF420DA6E1E
:1003300059C0DFFF462A02EC03F0DCEC02F0A3EF29
:1003400001F0A3EF01F0040E4764A9EF01F0ABEF59
:1003500001F0B1EF01F002EC03F0DCEC02F0B1EFE0
:1003600001F00F0E4664B7EF01F0B9EF01F059EF5D
:1003700001F07EEC02F059EF01F059EF01F059EF76
:1003800001F000EF00F0CBEF01F04D4A4E2A4F4A4A
:10039000502ACBEF01F04FC0D9FF50C0DAFF4DC05B
:1003A000F6FF4EC0F7FFDE500900F518D8A4DBEFCA
:1003B00001F0DDEF01F0EFEF01F04DC0F6FF4EC0B0
:1003C000F7FF0800F5500009D8A4E9EF01F0EBEFC2
:1003D00001F0C5EF01F0EFEF01F0EFEF01F04FC0DA
:1003E000D9FF50C0DAFFDF50516E526A511E521EC3
:1003F000514A522A4DC0F6FF4EC0F7FF0800F55093
:1004000051244D6E000E52204E6E07EF02F0120086
:10041000000E536E190E536410EF02F012EF02F04B
:1004200016EF02F042EF02F042EF02F05350020DDD
:10043000010EF324D96E000EF420DA6EDECF4DF0FB
:10044000DDCF4EF0480E4F6E000E506EC3EC01F043
:100450004D504E10D8A42FEF02F031EF02F037EFDD
:1004600002F05350410F45EF02F045EF02F0532ADE
:10047000190E53643EEF02F040EF02F016EF02F067
:1004800042EF02F0000E45EF02F01200000E506E37
:10049000000E4F6E70EF02F0000E526E000E516EA5
:1004A000525008E15128D8A058EF02F05AEF02F05C
:1004B0005EEF02F06CEF02F06CEF02F0514A522A4C
:1004C000525008E15128D8A068EF02F06AEF02F01C
:1004D0005EEF02F06CEF02F04F4A502A70EF02F02C
:1004E0004D504F5C4E505058D8A079EF02F07BEF42
:1004F00002F04CEF02F07DEF02F01200000E4E6EA3
:10050000050E4D6E46EC02F0010E7CEC03F0000E81
:100510004E6E050E4D6E46EC02F0000E466E000E5D
:10052000546E0F0E546497EF02F099EF02F09DEFB6
:1005300002F0B2EF02F0B2EF02F05450010D350EAE
:10054000F324D96E000EF420DA6E000EDF6E542A0A
:100550000F0E5464AEEF02F0B0EF02F09DEF02F028
:10056000B2EF02F01200010EC26E000EC16E080E54
:10057000C06EC282BCEF02F0C2B2C1EF02F0C3EFA4
:1005800002F0BCEF02F0C4CF4DF00F0EC16E800E32
:100590004D60CDEF02F0CFEF02F0D6EF02F0300E5B
:1005A000DBEF02F0DBEF02F0DBEF02F0310EDBEF0E
:1005B00002F0DBEF02F01200000E476E000E4D6EEF
:1005C000040E4D64E6EF02F0E8EF02F0ECEF02F00B
:1005D00001EF03F001EF03F04D50010D480EF3243D
:1005E000D96E000EF420DA6E000EDF6E4D2A040E76
:1005F0004D64FDEF02F0FFEF02F0ECEF02F001EFCF
:1006000003F01200000E4E6E050E4D6E46EC02F029
:10061000FF0E546EFF0E556E4650566E576A54507C
:10062000562655505722350E5624D96E000E5720A7
:10063000DA6EDF506EEC03F0000E4E6E050E4D6E5E
:1006400046EC02F01200800EF66E060EF76E000EFB
:10065000F86E00EE01F010EE34F00900F5CFEEFF79
:10066000E550E150FAE100EE35F0180EEE6AE806CA
:10067000FDE1000EF86E020EF76E00011FEF01F0B3
:10068000260206021A020C020402150220020102CE
:10069000030238022F020B023502170239021F0231
:1006A0002E02160202022702250224023402290227
:1006B0003302100280B25FEF03F061EF03F068EFE6
:1006C00003F0010E6DEF03F06DEF03F06DEF03F03B
:1006D000000E6DEF03F06DEF03F01200536E53C088
:1006E00083FF050E816E000E4E6E050E4D6E46ECBC
:1006F00002F0010E816E1200536E53C083FF040E90
:10070000816E000E4E6E050E4D6E46EC02F0000E30
:04071000816E1200E4
:020000040020DA
:08000000FFFFFFFFFFFFFFFF00
:020000040030CA
:0E000000FF08191EFF8381FF03C003E00340C9
:00000001FF
